:100000000C942A000C943C000C943C000C943C0092
:100010000C943C000C943C000C943C000C943C0070
:100020000C943C000C943C000C943C000C943C0060
:100030000C943C000C943C000C943C000C943C0050
:100040000C9449010C943C000C943C000C943C0032
:100050000C943C0011241FBECFE5D8E0DEBFCDBF1D
:1000600010E0A0E6B0E001C01D92A636B107E1F7AE
:100070000E94B5030C94D5030C940000DF93CF933A
:10008000CDB7DEB7A7E2B0E0E7E2F0E080818064C0
:100090008C93A7E2B0E0E7E2F0E080818F778C9369
:1000A000A7E2B0E0E7E2F0E0808180628C93A6E214
:1000B000B0E0E6E2F0E0808184608C93A6E2B0E0FC
:1000C000E6E2F0E0808182608C93A6E2B0E0E6E2B6
:1000D000F0E0808181608C93A6E2B0E0E6E2F0E09F
:1000E000808180688C93CF91DF910895DF93CF93C7
:1000F000CDB7DEB728970FB6F894DEBF0FBECDBFE1
:100100008E8378876F831A821B821C821D821982DC
:1001100080916400882309F05BC081E080936400D3
:10012000A7E2B0E0E7E2F0E08081807E8C93A7E276
:10013000B0E0E7E2F0E090818E81892B8C93A6E21B
:10014000B0E0E6E2F0E0808180648C930BC08A81AD
:100150009B81AC81BD810196A11DB11D8A839B83CA
:10016000AC83BD83E6E2F0E0808182958F70882FBA
:1001700090E081709070009761F48A819B81AC81DE
:10018000BD81803523EC920720E0A20720E0B20772
:10019000F1F68A819B81AC81BD81803523EC920789
:1001A00020E0A20720E0B20719F481E0898312C0A1
:1001B000A6E2B0E0E6E2F0E0808180618C93E5E2C7
:1001C000F0E08081EF81F88580831092640002C0A6
:1001D00083E08983898128960FB6F894DEBF0FBE2D
:1001E000CDBFCF91DF910895DF93CF9300D000D0A2
:1001F00000D0CDB7DEB78A837C836B835E834D836B
:100200001982809164008823C1F58B819C810097BD
:1002100021F08D819E81009719F482E089832FC09F
:1002200081E0809364008B819C8190936100809336
:1002300060008D819E819093630080936200A7E2AD
:10024000B0E0E7E2F0E08081807E8C93A7E2B0E04E
:10025000E7E2F0E090818A81892B8C93A6E2B0E0FE
:10026000E6E2F0E0808180648C93A6E2B0E0E6E212
:10027000F0E0808188608C9302C083E0898389816B
:1002800026960FB6F894DEBF0FBECDBFCF91DF919B
:1002900008951F920F920FB60F9211242F933F9340
:1002A0004F935F936F937F938F939F93AF93BF937E
:1002B000EF93FF93DF93CF93CDB7DEB7A0916000AC
:1002C000B0916100E5E2F0E080818C9310926400CF
:1002D000E0916200F09163000995A6E2B0E0E6E2E9
:1002E000F0E08081877F8C93CF91DF91FF91EF9138
:1002F000BF91AF919F918F917F916F915F914F913E
:100300003F912F910F900FBE0F901F901895DF9384
:10031000CF93CDB7DEB728970FB6F894DEBF0FBEE8
:10032000CDBF8A836B834C8319828B81883008F020
:10033000F4C08C81882309F077C08A81282F30E0AF
:1003400038872F838F8198858130910559F12F81CE
:100350003885223031052CF48F819885009769F01B
:1003600060C02F8138852230310589F18F819885D1
:100370008330910509F440C054C0ABE3B0E0EBE337
:10038000F0E08081482F8B81282F30E081E090E0E1
:10039000022E02C0880F991F0A94E2F780958423E9
:1003A0008C93BDC0A8E3B0E0E8E3F0E08081482F83
:1003B0008B81282F30E081E090E0022E02C0880F70
:1003C000991F0A94E2F7809584238C93A8C0A5E333
:1003D000B0E0E5E3F0E08081482F8B81282F30E00A
:1003E00081E090E0022E02C0880F991F0A94E2F784
:1003F000809584238C9393C0A2E3B0E0E2E3F0E025
:100400008081482F8B81282F30E081E090E0022E00
:1004100002C0880F991F0A94E2F7809584238C9379
:100420007EC081E089837BC08C81813009F072C0FD
:100430008A81282F30E03E832D838D819E818130FB
:10044000910549F12D813E81223031052CF48D81B9
:100450009E81009761F05BC02D813E812230310585
:1004600071F18D819E8183309105E9F150C0ABE33C
:10047000B0E0EBE3F0E08081482F8B81282F30E063
:1004800081E090E0022E02C0880F991F0A94E2F7E3
:10049000842B8C9344C0A8E3B0E0E8E3F0E08081D3
:1004A000482F8B81282F30E081E090E0022E02C09F
:1004B000880F991F0A94E2F7842B8C9330C0A5E330
:1004C000B0E0E5E3F0E08081482F8B81282F30E019
:1004D00081E090E0022E02C0880F991F0A94E2F793
:1004E000842B8C931CC0A2E3B0E0E2E3F0E08081B7
:1004F000482F8B81282F30E081E090E0022E02C04F
:10050000880F991F0A94E2F7842B8C9308C081E02E
:10051000898305C081E0898302C081E08983898164
:1005200028960FB6F894DEBF0FBECDBFCF91DF91F6
:100530000895DF93CF9300D000D00F92CDB7DEB7F0
:100540008A836B8319828A81282F30E03D832C8334
:100550008C819D8181309105D1F02C813D812230AB
:1005600031052CF48C819D81009761F01FC02C8196
:100570003D812230310581F08C819D818330910550
:1005800081F014C0EBE3F0E08B81808311C0E8E3DD
:10059000F0E08B8180830CC0E5E3F0E08B81808309
:1005A00007C0E2E3F0E08B81808302C081E08983B1
:1005B00089810F900F900F900F900F90CF91DF9146
:1005C0000895DF93CF93CDB7DEB727970FB6F89492
:1005D000DEBF0FBECDBF8A836B835D834C831982E0
:1005E0008C819D81009709F478C08B81883008F058
:1005F00074C08A81282F30E03F832E834E815F8133
:100600004130510559F18E819F818230910534F43A
:100610002E813F812115310569F05CC04E815F81DB
:100620004230510579F18E819F818330910509F423
:100630003DC050C0E9E3F0E08081282F30E08B819D
:10064000882F90E0A90102C0559547958A95E2F759
:10065000CA018170EC81FD81808341C0E6E3F0E056
:100660008081282F30E08B81882F90E0A90102C083
:10067000559547958A95E2F7CA018170EC81FD8115
:1006800080832DC0E3E3F0E08081282F30E08B8170
:10069000882F90E0A90102C0559547958A95E2F709
:1006A000CA018170EC81FD81808319C0E0E3F0E034
:1006B0008081282F30E08B81882F90E0A90102C033
:1006C000559547958A95E2F7CA018170EC81FD81C5
:1006D000808305C081E0898302C081E089838981AC
:1006E00027960FB6F894DEBF0FBECDBFCF91DF9136
:1006F0000895DF93CF93CDB7DEB7AFE5B0E0EFE578
:10070000F0E0808180688C93CF91DF910895DF9332
:10071000CF93CDB7DEB7AFE5B0E0EFE5F0E0808195
:100720008F778C93CF91DF910895DF93CF93CDB7DF
:10073000DEB7EAE3F0E01082E7E3F0E01082E4E302
:10074000F0E08FEF8083E1E3F0E01082EBE3F0E094
:100750001082E8E3F0E01082E5E3F0E01082E2E3EB
:10076000F0E01082CF91DF910895DF93CF93CDB762
:10077000DEB70E9495030E943E000E94790325E6A1
:1007800030E048EC53E080E0B9010E94F400F7CF7C
:10079000DF93CF93CDB7DEB79091650082E0692FEC
:0E07A0000E949902CF91DF910895F894FFCF47
:00000001FF
