:100000000C942A000C943C000C943C000C943C0092
:100010000C943C000C943C000C943C000C943C0070
:100020000C943C000C943C000C944A030C943C004F
:100030000C943C000C943C000C943C000C943C0050
:100040000C943C000C943C000C943C000C943C0040
:100050000C943C0011241FBECFE5D8E0DEBFCDBF1D
:1000600010E0A0E6B0E001C01D92A337B107E1F7B0
:100070000E947D030C94F0030C940000DF93CF9357
:10008000CDB7DEB728970FB6F894DEBF0FBECDBF51
:100090008A836B834C8319828B81883008F0F4C08B
:1000A0008C81882309F077C08A81282F30E0388737
:1000B0002F838F8198858130910559F12F81388563
:1000C000223031052CF48F819885009769F060C04B
:1000D0002F8138852230310589F18F8198858330D1
:1000E000910509F440C054C0ABE3B0E0EBE3F0E0AD
:1000F0008081482F8B81282F30E081E090E0022E14
:1001000002C0880F991F0A94E2F7809584238C938C
:10011000BDC0A8E3B0E0E8E3F0E08081482F8B8128
:10012000282F30E081E090E0022E02C0880F991F56
:100130000A94E2F7809584238C93A8C0A5E3B0E0ED
:10014000E5E3F0E08081482F8B81282F30E081E0CB
:1001500090E0022E02C0880F991F0A94E2F7809562
:1001600084238C9393C0A2E3B0E0E2E3F0E08081CB
:10017000482F8B81282F30E081E090E0022E02C0D2
:10018000880F991F0A94E2F7809584238C937EC090
:1001900081E089837BC08C81813009F072C08A81C3
:1001A000282F30E03E832D838D819E818130910503
:1001B00049F12D813E81223031052CF48D819E81C3
:1001C000009761F05BC02D813E812230310571F1D5
:1001D0008D819E8183309105E9F150C0ABE3B0E0A1
:1001E000EBE3F0E08081482F8B81282F30E081E025
:1001F00090E0022E02C0880F991F0A94E2F7842B28
:100200008C9344C0A8E3B0E0E8E3F0E08081482F9D
:100210008B81282F30E081E090E0022E02C0880F11
:10022000991F0A94E2F7842B8C9330C0A5E3B0E0C9
:10023000E5E3F0E08081482F8B81282F30E081E0DA
:1002400090E0022E02C0880F991F0A94E2F7842BD7
:100250008C931CC0A2E3B0E0E2E3F0E08081482F81
:100260008B81282F30E081E090E0022E02C0880FC1
:10027000991F0A94E2F7842B8C9308C081E089834C
:1002800005C081E0898302C081E089838981289645
:100290000FB6F894DEBF0FBECDBFCF91DF910895AA
:1002A000DF93CF9300D000D00F92CDB7DEB78A8313
:1002B0006B8319828A81282F30E03D832C838C81C7
:1002C0009D8181309105D1F02C813D812230310515
:1002D0002CF48C819D81009761F01FC02C813D81A1
:1002E0002230310581F08C819D818330910581F030
:1002F00014C0EBE3F0E08B81808311C0E8E3F0E011
:100300008B8180830CC0E5E3F0E08B81808307C0A4
:10031000E2E3F0E08B81808302C081E08983898100
:100320000F900F900F900F900F90CF91DF91089545
:10033000DF93CF93CDB7DEB727970FB6F894DEBF24
:100340000FBECDBF8A836B835D834C8319828C8102
:100350009D81009709F478C08B81883008F074C0C3
:100360008A81282F30E03F832E834E815F81413088
:10037000510559F18E819F818230910534F42E818F
:100380003F812115310569F05CC04E815F814230AB
:10039000510579F18E819F818330910509F43DC02B
:1003A00050C0E9E3F0E08081282F30E08B81882F76
:1003B00090E0A90102C0559547958A95E2F7CA01D8
:1003C0008170EC81FD81808341C0E6E3F0E08081B3
:1003D000282F30E08B81882F90E0A90102C055952D
:1003E00047958A95E2F7CA018170EC81FD8180838F
:1003F0002DC0E3E3F0E08081282F30E08B81882F4F
:1004000090E0A90102C0559547958A95E2F7CA0187
:100410008170EC81FD81808319C0E0E3F0E0808190
:10042000282F30E08B81882F90E0A90102C05595DC
:1004300047958A95E2F7CA018170EC81FD8180833E
:1004400005C081E0898302C081E089838981279684
:100450000FB6F894DEBF0FBECDBFCF91DF910895E8
:10046000DF93CF93CDB7DEB7AFE5B0E0EFE5F0E0D7
:10047000808180688C93CF91DF910895DF93CF9333
:10048000CDB7DEB7AFE5B0E0EFE5F0E080818F7784
:100490008C93CF91DF910895DF93CF93CDB7DEB7E3
:1004A000EAE3F0E087E08083E7E3F0E01082E4E352
:1004B000F0E01082E1E3F0E01082EBE3F0E0108284
:1004C000E8E3F0E01082E5E3F0E01082E2E3F0E040
:1004D0001082CF91DF910895DF93CF9300D000D0A9
:1004E0000F92CDB7DEB789837B836A835D834C83AC
:1004F0008981882F90E0880F991F880F991FFC0130
:10050000E05AFF4F8A819B81918380838981882F64
:1005100090E0880F991F0196880F991FFC01E05AFF
:10052000FF4F8C819D81918380830F900F900F905E
:100530000F900F90CF91DF910895DF93CF93CDB7B8
:10054000DEB78AEA92E00E942D030E94F802CF9162
:10055000DF910895DF93CF930F92CDB7DEB78091EF
:100560006C0090916D00019690936D0080936C00EB
:10057000198237C040916C0050916D008981882F9D
:1005800090E0880F991F880F991FFC01E05AFF4FD8
:1005900020813181CA01B9010E94DC030097F1F486
:1005A0008981882F90E0880F991F0196880F991FE5
:1005B000FC01E05AFF4F80819181009779F0898199
:1005C000882F90E0880F991F0196880F991FFC01D2
:1005D000E05AFF4F0190F081E02D099589818F5FEE
:1005E00089838981833030F20F90CF91DF91089514
:1005F000DF93CF93CDB7DEB7A3E5B0E0E3E5F0E05E
:1006000080818F7B8C93A3E5B0E0E3E5F0E080810F
:1006100088608C93ECE5F0E08DE78083A9E5B0E09D
:10062000E9E5F0E0808182608C93A3E5B0E0E3E54A
:10063000F0E0808181608C93A3E5B0E0E3E5F0E039
:10064000808182608C93A3E5B0E0E3E5F0E08081F7
:100650008B7F8C93CF91DF910895DF93CF9300D060
:100660000F92CDB7DEB79B838A8319828A819B81E3
:10067000009739F08A819B8190936F0080936E0080
:1006800002C082E0898389810F900F900F90CF91F3
:10069000DF9108951F920F920FB60F9211242F939E
:1006A0003F934F935F936F937F938F939F93AF93FA
:1006B000BF93EF93FF93DF93CF93CDB7DEB78091D6
:1006C0006E0090916F00009729F0E0916E00F0911C
:1006D0006F000995CF91DF91FF91EF91BF91AF919D
:1006E0009F918F917F916F915F914F913F912F914A
:1006F0000F900FBE0F901F901895DF93CF93CDB73B
:10070000DEB70E944C020E94300220EA33E080E013
:1007100064EF71E0A9010E946C0224EB33E081E0F8
:1007200068EE73E0A9010E946C0228EC33E082E0DD
:100730006CED75E0A9010E946C020E949D02FFCF42
:10074000DF93CF93CDB7DEB79091700081E089271A
:10075000809370009091700080E060E0492F0E94CB
:100760003E00CF91DF910895DF93CF93CDB7DEB7F1
:100770009091710081E089278093710090917100C0
:1007800080E061E0492F0E943E00CF91DF91089503
:10079000DF93CF93CDB7DEB79091720081E08927C8
:1007A000809372009091720080E062E0492F0E9475
:1007B0003E00CF91DF910895AA1BBB1B51E107C0FA
:1007C000AA1FBB1FA617B70710F0A61BB70B881FE1
:1007D000991F5A95A9F780959095BC01CD01089570
:0407E000F894FFCFBB
:00000001FF
